:1000000041C01CC35AC05AC058C057C056C055C082
:1000100054C053C052C051C050C04FC04EC04DC05C
:100020004CC04BC04AC080408820A0601090503027
:10003000B0700403090414036B00690065007300C9
:10004000620061007500650072000E0369007200B5
:100050005500740069006C0012011001FF000008D7
:10006000C016DC05000101020001090219000101AE
:1000700000C00A0904000001000000000705810318
:100080000800640011241FBECFE5D4E0DEBFCDBF61
:1000900010E0A0E6B0E0E2E8F8E002C005900D92C2
:1000A000A236B107D9F710E0A2E6B0E001C01D9278
:1000B000AF39B107E1F755D0E2C3A2CF1F920F923B
:1000C0000FB60F9211242F938F939F938091660008
:1000D0008F5F80936600863019F495B59F7E95BD3D
:1000E00090916700891711F5209165008091680053
:1000F000992787FD9095022E02C0959587950A94C1
:10010000E2F780FD02C08CE001C087E180936700C8
:10011000822F8F5F8093650088301CF485B58061E5
:1001200002C085B58D7F85BD109266009F918F912D
:100130002F910F900FBE0F901F9018951092660090
:10014000109265008CE5809367008AEC80936800CC
:100150008AE185BD89B7806889BF81ED83BDBB9A7F
:1001600008952EE088E190E00FB6F894A89581BD3F
:100170000FBE21BD17D159D0889A80E020EA3FE018
:1001800004C0A895F9013197F1F78150D1F788980B
:100190007894A89514D1FDCFFC0182E690E090936D
:1001A0008400809383008181882361F0813079F01D
:1001B000823031F1833031F1843061F1853009F0E2
:1001C00032C02BC082818093620083811FC088E18E
:1001D0000FB6F89481BD11BC0FBE28E088E190E015
:1001E0000FB6F894A89581BD0FBE21BD88EC90E0B4
:1001F00020E931E0F9013197F1F70197D9F713C000
:1002000063D009C08EEF8093620082818093630087
:1002100082E00895AED08EEF02C090DF8CEF809325
:10022000620081E0089580E00895A09A089580E03A
:1002300090E025E4A89A322F3A95F1F7A898322F4A
:100240003A95F1F7019685319105A1F7A89888E6CE
:100250009AE10197F1F7089580E090E025E4A89AEB
:10026000322F3A95F1F7A898322F3A95F1F7019687
:1002700085319105A1F7A89880EC98E00197F1F7F6
:10028000089580E090E020E4A89A322F3A95F1F7A3
:10029000A898322F3A95F1F70196893A9105A1F77E
:1002A000A89880E596E40197F1F70895EADFBFDFAB
:1002B000BEDFBDDFD1DFD0DFCFDFCEDFCDDFB7DF09
:1002C000B6DFB5DFC9DF0895F894F0DFC5DFC4DF1E
:1002D000C3DFC2DFACDFC0DFBFDFBEDFBDDFBCDF3F
:1002E000BBDFBADFB9DFA3DFA2DFA1DFA0DF9FDFC3
:1002F0009EDF9DDF9CDF789408950F931F93CF932B
:10030000DF93082FD3DFA8DFA7DFA6DFA5DFC7E0D5
:10031000D0E010E0C8010C2E02C0959587950A9494
:10032000E2F780FF02C083DF01C096DF2197C23071
:10033000D10581F791DF90DF8FDFC7E0D0E0C80102
:100340000C2E02C0959587950A94E2F780FF02C0B3
:1003500083DF01C06CDF2197C230D10581F767DFF1
:1003600066DF65DF64DFA2DFDF91CF911F910F9120
:1003700008950F931F93CF93DF9310E0C0E4DCE95F
:100380000AC055DF0F5F0032E1F7CE010197F1F7A8
:100390001F5F153011F000E0F4CFDF91CF911F9176
:1003A0000F91089585B7826085BF8BB780648BBF3E
:1003B0008BE4809375008AE58093740008951F9301
:1003C000CF93DF9380918500835087FD99C09091F2
:1003D0008200209181002D3209F090C0883009F010
:1003E0008DC0CCE0D0E0C91BD109C757DF4F83ECEB
:1003F000809369008AE580936000109264002881F0
:10040000822F807619F0CE01C7DE6FC09A811092DC
:1004100072008981882359F42F7119F481E0809347
:1004200072001092730022E730E082E05AC08530FB
:1004300019F49093860052C08630D9F58B818130B3
:1004400041F488E590E0909384008093830082E1FA
:100450002CC0823041F48AE690E09093840080932F
:10046000830089E122C08330F9F48A81882341F432
:1004700082E390E0909384008093830084E015C031
:10048000813041F486E390E0909384008093830070
:1004900084E10BC0823041F48AE490E090938400C0
:1004A000809383008EE001C080E090E4909364002C
:1004B0001CC0883019F428E830E009C0893019F4EC
:1004C000909388000BC08A3021F422E730E081E06D
:1004D00008C08B3019F48BE48093750022E730E07C
:1004E00080E030938400209383009F81992321F43E
:1004F0009E81981708F4892F8093610010928500DF
:100500008091600084FF4DC0809161008F3F09F4AD
:1005100048C0182F893008F018E0811B80936100D3
:100520008091690098E8892780936900112369F117
:10053000209183003091840090916400812F81503C
:1005400096FF10C090E0BC0165597F4FA901CAE633
:10055000D0E0FA01A491A9934F5F5F4FC617D70768
:10056000C1F70CC090E0AC0145595F4FD901EAE6F4
:10057000F0E06D916193E417F507D9F70196820FCA
:10058000931F90938400809383008AE690E0612F0C
:1005900051D01C5F1C3019F08FEF809361001093D5
:1005A000600084E190B3957031F48150D9F71092D6
:1005B000860010928000DF91CF911F9108951F93C4
:1005C000FC01162F8091740084FF07C08091750094
:1005D00098E889278093750003C08AE580937400AA
:1005E000812F815090E089589F4FA6E7B0E021917C
:1005F0002D93A817B907D9F786E790E0612F1AD095
:100600001C5F109374001F910895A82FB92F80E0EC
:1006100090E041E050EA609530E009C02D918227DA
:100620009795879510F084279527305EC8F36F5F04
:10063000A8F30895EADF8D939D930895CF93CFB7E4
:10064000CF93DF93C395809BE9F7809B0BC0809B82
:1006500009C0809B07C0809B05C0809B03C0809B16
:1006600001C08BC06F93C0918200DD27C757DF4F59
:100670002F9365E5809B03C02F916F91E6CF0F9379
:100680001F934F9320E040E15F9300B3057000FBA0
:1006900027F93F9350E03BE039C0157040642F7755
:1006A000012F5F5F1EC0406810B315702F77525046
:1006B0001FC0406400B32F770570D1F15F5F00C0A9
:1006C00023C0406210B32F77157091F15F5F00C0B7
:1006D00025C005701027515012F45D5F00001150C5
:1006E00027952C3F10B3C8F61570012701502795A8
:1006F0002C3FC8F64227499300B3057010274F736B
:10070000115027952C3FA8F64695469510B31570C5
:1007100079F00127015027952C3F98F66B5A60F32A
:10072000315000B3B0F600C010E41ABF002719C062
:100730003B503195C31BD04010E41ABF0881033CE5
:1007400009F10B34F9F0209180001981110F121377
:10075000EDCF4A81441F093651F10D3211F0013EAF
:1007600029F7009387003F915F914F911F910F915F
:100770002F916F91CAB7C6FD65CFDF91CF91CFBFE3
:10078000CF91189520918700222369F3109185005D
:10079000112391F5343092F130938500209381003C
:1007A000109182003BE0311B3093820027C0009102
:1007B000850001300CF50AE54F7049F43091600076
:1007C00034FD1DC000936000C9E6D0E01CC030912C
:1007D000740034FD14C000937400C5E7D0E013C06A
:1007E000052710E000C0000002BB1AC0052710E07A
:1007F000221F1DC010E021C04AE502C032ED432F88
:10080000C4E1D0E032E011B31560909A02B311BB9D
:1008100055E020E865E320FF052702BB27951795E3
:100820001C3FF0F66695B8F7B1F720FF052702BB2D
:10083000279517951C3FD0F62795179517FF052785
:1008400000001C3F02BBB0F629913A9519F70A7FC8
:1008500010918600110FC651D04002BB11F01093C9
:10086000800010E41ABF016011B31A7F402F4A7F45
:1008700054E05A95F1F702BB11BB42BB74CFF89418
:02088000FFCFA8
:020882005AFF1B
:00000001FF
